{
  "contractName": "ViewTokenCrowdsale",
  "abi": [
    {
      "constant": false,
      "inputs": [
        {
          "name": "account",
          "type": "address"
        }
      ],
      "name": "addWhitelisted",
      "outputs": [],
      "payable": false,
      "stateMutability": "nonpayable",
      "type": "function"
    },
    {
      "constant": true,
      "inputs": [],
      "name": "hasClosed",
      "outputs": [
        {
          "name": "",
          "type": "bool"
        }
      ],
      "payable": false,
      "stateMutability": "view",
      "type": "function"
    },
    {
      "constant": false,
      "inputs": [
        {
          "name": "account",
          "type": "address"
        }
      ],
      "name": "removeWhitelisted",
      "outputs": [],
      "payable": false,
      "stateMutability": "nonpayable",
      "type": "function"
    },
    {
      "constant": true,
      "inputs": [],
      "name": "cap",
      "outputs": [
        {
          "name": "",
          "type": "uint256"
        }
      ],
      "payable": false,
      "stateMutability": "view",
      "type": "function"
    },
    {
      "constant": true,
      "inputs": [
        {
          "name": "account",
          "type": "address"
        }
      ],
      "name": "isWhitelisted",
      "outputs": [
        {
          "name": "",
          "type": "bool"
        }
      ],
      "payable": false,
      "stateMutability": "view",
      "type": "function"
    },
    {
      "constant": true,
      "inputs": [],
      "name": "goal",
      "outputs": [
        {
          "name": "",
          "type": "uint256"
        }
      ],
      "payable": false,
      "stateMutability": "view",
      "type": "function"
    },
    {
      "constant": true,
      "inputs": [],
      "name": "weiRaised",
      "outputs": [
        {
          "name": "",
          "type": "uint256"
        }
      ],
      "payable": false,
      "stateMutability": "view",
      "type": "function"
    },
    {
      "constant": true,
      "inputs": [
        {
          "name": "",
          "type": "address"
        }
      ],
      "name": "contributions",
      "outputs": [
        {
          "name": "",
          "type": "uint256"
        }
      ],
      "payable": false,
      "stateMutability": "view",
      "type": "function"
    },
    {
      "constant": true,
      "inputs": [],
      "name": "tokenSalePercentage",
      "outputs": [
        {
          "name": "",
          "type": "uint256"
        }
      ],
      "payable": false,
      "stateMutability": "view",
      "type": "function"
    },
    {
      "constant": true,
      "inputs": [],
      "name": "isOpen",
      "outputs": [
        {
          "name": "",
          "type": "bool"
        }
      ],
      "payable": false,
      "stateMutability": "view",
      "type": "function"
    },
    {
      "constant": true,
      "inputs": [],
      "name": "closingTime",
      "outputs": [
        {
          "name": "",
          "type": "uint256"
        }
      ],
      "payable": false,
      "stateMutability": "view",
      "type": "function"
    },
    {
      "constant": false,
      "inputs": [],
      "name": "finalize",
      "outputs": [],
      "payable": false,
      "stateMutability": "nonpayable",
      "type": "function"
    },
    {
      "constant": false,
      "inputs": [],
      "name": "renounceWhitelistAdmin",
      "outputs": [],
      "payable": false,
      "stateMutability": "nonpayable",
      "type": "function"
    },
    {
      "constant": true,
      "inputs": [],
      "name": "capReached",
      "outputs": [
        {
          "name": "",
          "type": "bool"
        }
      ],
      "payable": false,
      "stateMutability": "view",
      "type": "function"
    },
    {
      "constant": true,
      "inputs": [],
      "name": "wallet",
      "outputs": [
        {
          "name": "",
          "type": "address"
        }
      ],
      "payable": false,
      "stateMutability": "view",
      "type": "function"
    },
    {
      "constant": true,
      "inputs": [],
      "name": "foundersPercentage",
      "outputs": [
        {
          "name": "",
          "type": "uint256"
        }
      ],
      "payable": false,
      "stateMutability": "view",
      "type": "function"
    },
    {
      "constant": true,
      "inputs": [],
      "name": "foundersTimelock",
      "outputs": [
        {
          "name": "",
          "type": "address"
        }
      ],
      "payable": false,
      "stateMutability": "view",
      "type": "function"
    },
    {
      "constant": false,
      "inputs": [],
      "name": "renounceOwnership",
      "outputs": [],
      "payable": false,
      "stateMutability": "nonpayable",
      "type": "function"
    },
    {
      "constant": false,
      "inputs": [
        {
          "name": "account",
          "type": "address"
        }
      ],
      "name": "addWhitelistAdmin",
      "outputs": [],
      "payable": false,
      "stateMutability": "nonpayable",
      "type": "function"
    },
    {
      "constant": true,
      "inputs": [],
      "name": "goalReached",
      "outputs": [
        {
          "name": "",
          "type": "bool"
        }
      ],
      "payable": false,
      "stateMutability": "view",
      "type": "function"
    },
    {
      "constant": true,
      "inputs": [],
      "name": "foundationPercentage",
      "outputs": [
        {
          "name": "",
          "type": "uint256"
        }
      ],
      "payable": false,
      "stateMutability": "view",
      "type": "function"
    },
    {
      "constant": true,
      "inputs": [],
      "name": "owner",
      "outputs": [
        {
          "name": "",
          "type": "address"
        }
      ],
      "payable": false,
      "stateMutability": "view",
      "type": "function"
    },
    {
      "constant": true,
      "inputs": [],
      "name": "isOwner",
      "outputs": [
        {
          "name": "",
          "type": "bool"
        }
      ],
      "payable": false,
      "stateMutability": "view",
      "type": "function"
    },
    {
      "constant": true,
      "inputs": [],
      "name": "partnersFund",
      "outputs": [
        {
          "name": "",
          "type": "address"
        }
      ],
      "payable": false,
      "stateMutability": "view",
      "type": "function"
    },
    {
      "constant": true,
      "inputs": [],
      "name": "foundationFund",
      "outputs": [
        {
          "name": "",
          "type": "address"
        }
      ],
      "payable": false,
      "stateMutability": "view",
      "type": "function"
    },
    {
      "constant": true,
      "inputs": [],
      "name": "investorMinCap",
      "outputs": [
        {
          "name": "",
          "type": "uint256"
        }
      ],
      "payable": false,
      "stateMutability": "view",
      "type": "function"
    },
    {
      "constant": true,
      "inputs": [],
      "name": "finalized",
      "outputs": [
        {
          "name": "",
          "type": "bool"
        }
      ],
      "payable": false,
      "stateMutability": "view",
      "type": "function"
    },
    {
      "constant": true,
      "inputs": [],
      "name": "partnersTimelock",
      "outputs": [
        {
          "name": "",
          "type": "address"
        }
      ],
      "payable": false,
      "stateMutability": "view",
      "type": "function"
    },
    {
      "constant": true,
      "inputs": [],
      "name": "openingTime",
      "outputs": [
        {
          "name": "",
          "type": "uint256"
        }
      ],
      "payable": false,
      "stateMutability": "view",
      "type": "function"
    },
    {
      "constant": true,
      "inputs": [],
      "name": "releaseTime",
      "outputs": [
        {
          "name": "",
          "type": "uint256"
        }
      ],
      "payable": false,
      "stateMutability": "view",
      "type": "function"
    },
    {
      "constant": true,
      "inputs": [
        {
          "name": "account",
          "type": "address"
        }
      ],
      "name": "isWhitelistAdmin",
      "outputs": [
        {
          "name": "",
          "type": "bool"
        }
      ],
      "payable": false,
      "stateMutability": "view",
      "type": "function"
    },
    {
      "constant": false,
      "inputs": [
        {
          "name": "refundee",
          "type": "address"
        }
      ],
      "name": "claimRefund",
      "outputs": [],
      "payable": false,
      "stateMutability": "nonpayable",
      "type": "function"
    },
    {
      "constant": true,
      "inputs": [],
      "name": "stage",
      "outputs": [
        {
          "name": "",
          "type": "uint8"
        }
      ],
      "payable": false,
      "stateMutability": "view",
      "type": "function"
    },
    {
      "constant": true,
      "inputs": [],
      "name": "foundersFund",
      "outputs": [
        {
          "name": "",
          "type": "address"
        }
      ],
      "payable": false,
      "stateMutability": "view",
      "type": "function"
    },
    {
      "constant": false,
      "inputs": [],
      "name": "renounceWhitelisted",
      "outputs": [],
      "payable": false,
      "stateMutability": "nonpayable",
      "type": "function"
    },
    {
      "constant": true,
      "inputs": [
        {
          "name": "payee",
          "type": "address"
        }
      ],
      "name": "depositsOf",
      "outputs": [
        {
          "name": "",
          "type": "uint256"
        }
      ],
      "payable": false,
      "stateMutability": "view",
      "type": "function"
    },
    {
      "constant": true,
      "inputs": [],
      "name": "foundationTimelock",
      "outputs": [
        {
          "name": "",
          "type": "address"
        }
      ],
      "payable": false,
      "stateMutability": "view",
      "type": "function"
    },
    {
      "constant": false,
      "inputs": [
        {
          "name": "beneficiary",
          "type": "address"
        }
      ],
      "name": "buyTokens",
      "outputs": [],
      "payable": true,
      "stateMutability": "payable",
      "type": "function"
    },
    {
      "constant": true,
      "inputs": [],
      "name": "investorHardCap",
      "outputs": [
        {
          "name": "",
          "type": "uint256"
        }
      ],
      "payable": false,
      "stateMutability": "view",
      "type": "function"
    },
    {
      "constant": false,
      "inputs": [
        {
          "name": "newOwner",
          "type": "address"
        }
      ],
      "name": "transferOwnership",
      "outputs": [],
      "payable": false,
      "stateMutability": "nonpayable",
      "type": "function"
    },
    {
      "constant": true,
      "inputs": [],
      "name": "partnersPercentage",
      "outputs": [
        {
          "name": "",
          "type": "uint256"
        }
      ],
      "payable": false,
      "stateMutability": "view",
      "type": "function"
    },
    {
      "constant": true,
      "inputs": [],
      "name": "token",
      "outputs": [
        {
          "name": "",
          "type": "address"
        }
      ],
      "payable": false,
      "stateMutability": "view",
      "type": "function"
    },
    {
      "inputs": [
        {
          "name": "_rate",
          "type": "uint256"
        },
        {
          "name": "_wallet",
          "type": "address"
        },
        {
          "name": "_token",
          "type": "address"
        },
        {
          "name": "_cap",
          "type": "uint256"
        },
        {
          "name": "_openingTime",
          "type": "uint256"
        },
        {
          "name": "_closingTime",
          "type": "uint256"
        },
        {
          "name": "_goal",
          "type": "uint256"
        },
        {
          "name": "_foundersAddress",
          "type": "address"
        },
        {
          "name": "_foundationAddress",
          "type": "address"
        },
        {
          "name": "_partnersAddress",
          "type": "address"
        },
        {
          "name": "_releaseTime",
          "type": "uint256"
        }
      ],
      "payable": false,
      "stateMutability": "nonpayable",
      "type": "constructor"
    },
    {
      "payable": true,
      "stateMutability": "payable",
      "type": "fallback"
    },
    {
      "anonymous": false,
      "inputs": [
        {
          "indexed": true,
          "name": "previousOwner",
          "type": "address"
        },
        {
          "indexed": true,
          "name": "newOwner",
          "type": "address"
        }
      ],
      "name": "OwnershipTransferred",
      "type": "event"
    },
    {
      "anonymous": false,
      "inputs": [],
      "name": "CrowdsaleFinalized",
      "type": "event"
    },
    {
      "anonymous": false,
      "inputs": [
        {
          "indexed": false,
          "name": "prevClosingTime",
          "type": "uint256"
        },
        {
          "indexed": false,
          "name": "newClosingTime",
          "type": "uint256"
        }
      ],
      "name": "TimedCrowdsaleExtended",
      "type": "event"
    },
    {
      "anonymous": false,
      "inputs": [
        {
          "indexed": true,
          "name": "purchaser",
          "type": "address"
        },
        {
          "indexed": true,
          "name": "beneficiary",
          "type": "address"
        },
        {
          "indexed": false,
          "name": "value",
          "type": "uint256"
        },
        {
          "indexed": false,
          "name": "amount",
          "type": "uint256"
        }
      ],
      "name": "TokensPurchased",
      "type": "event"
    },
    {
      "anonymous": false,
      "inputs": [
        {
          "indexed": true,
          "name": "account",
          "type": "address"
        }
      ],
      "name": "WhitelistedAdded",
      "type": "event"
    },
    {
      "anonymous": false,
      "inputs": [
        {
          "indexed": true,
          "name": "account",
          "type": "address"
        }
      ],
      "name": "WhitelistedRemoved",
      "type": "event"
    },
    {
      "anonymous": false,
      "inputs": [
        {
          "indexed": true,
          "name": "account",
          "type": "address"
        }
      ],
      "name": "WhitelistAdminAdded",
      "type": "event"
    },
    {
      "anonymous": false,
      "inputs": [
        {
          "indexed": true,
          "name": "account",
          "type": "address"
        }
      ],
      "name": "WhitelistAdminRemoved",
      "type": "event"
    },
    {
      "constant": true,
      "inputs": [
        {
          "name": "_beneficiary",
          "type": "address"
        }
      ],
      "name": "getUserContribution",
      "outputs": [
        {
          "name": "",
          "type": "uint256"
        }
      ],
      "payable": false,
      "stateMutability": "view",
      "type": "function"
    },
    {
      "constant": false,
      "inputs": [
        {
          "name": "_accounts",
          "type": "address[]"
        }
      ],
      "name": "addAddressesToWhitelist",
      "outputs": [],
      "payable": false,
      "stateMutability": "nonpayable",
      "type": "function"
    },
    {
      "constant": false,
      "inputs": [
        {
          "name": "_stage",
          "type": "uint256"
        }
      ],
      "name": "setCrowdsaleStage",
      "outputs": [],
      "payable": false,
      "stateMutability": "nonpayable",
      "type": "function"
    },
    {
      "constant": true,
      "inputs": [],
      "name": "rate",
      "outputs": [
        {
          "name": "",
          "type": "uint256"
        }
      ],
      "payable": false,
      "stateMutability": "view",
      "type": "function"
    }
  ],
  "bytecode": "0x608060405266470de4df820000600e556802b5e3af16b1880000600f556000601160006101000a81548160ff021916908360018111156200003c57fe5b02179055506046601255600a601355600a601455600a6015553480156200006257600080fd5b506040516101608062005f9583398101806040526101608110156200008657600080fd5b8101908080519060200190929190805190602001909291908051906020019092919080519060200190929190805190602001909291908051906020019092919080519060200190929190805190602001909291908051906020019092919080519060200190929190805190602001909291905050508487878a8e8e8e6200011333620007f360201b60201c565b60016002819055506000831162000192576040517f08c379a00000000000000000000000000000000000000000000000000000000081526004018080602001828103825260148152602001807f43726f776473616c653a2072617465206973203000000000000000000000000081525060200191505060405180910390fd5b600073ffffffffffffffffffffffffffffffffffffffff168273ffffffffffffffffffffffffffffffffffffffff1614156200021a576040517f08c379a000000000000000000000000000000000000000000000000000000000815260040180806020018281038252602581526020018062005f706025913960400191505060405180910390fd5b600073ffffffffffffffffffffffffffffffffffffffff168173ffffffffffffffffffffffffffffffffffffffff161415620002a2576040517f08c379a000000000000000000000000000000000000000000000000000000000815260040180806020018281038252602481526020018062005f2a6024913960400191505060405180910390fd5b8260058190555081600460006101000a81548173ffffffffffffffffffffffffffffffffffffffff021916908373ffffffffffffffffffffffffffffffffffffffff16021790555080600360006101000a81548173ffffffffffffffffffffffffffffffffffffffff021916908373ffffffffffffffffffffffffffffffffffffffff16021790555050505060008111620003a5576040517f08c379a00000000000000000000000000000000000000000000000000000000081526004018080602001828103825260198152602001807f43617070656443726f776473616c653a2063617020697320300000000000000081525060200191505060405180910390fd5b80600781905550504282101562000408576040517f08c379a000000000000000000000000000000000000000000000000000000000815260040180806020018281038252603381526020018062005e966033913960400191505060405180910390fd5b81811162000462576040517f08c379a000000000000000000000000000000000000000000000000000000000815260040180806020018281038252603781526020018062005ef36037913960400191505060405180910390fd5b816008819055508060098190555050506000600a60006101000a81548160ff0219169083151502179055506000811162000504576040517f08c379a000000000000000000000000000000000000000000000000000000000815260040180806020018281038252601e8152602001807f526566756e6461626c6543726f776473616c653a20676f616c2069732030000081525060200191505060405180910390fd5b620005146200085460201b60201c565b604051620005229062000a42565b808273ffffffffffffffffffffffffffffffffffffffff1673ffffffffffffffffffffffffffffffffffffffff168152602001915050604051809103906000f08015801562000575573d6000803e3d6000fd5b50600c60006101000a81548173ffffffffffffffffffffffffffffffffffffffff021916908373ffffffffffffffffffffffffffffffffffffffff16021790555080600b819055505033600d60006101000a81548173ffffffffffffffffffffffffffffffffffffffff021916908373ffffffffffffffffffffffffffffffffffffffff160217905550600d60009054906101000a900473ffffffffffffffffffffffffffffffffffffffff1673ffffffffffffffffffffffffffffffffffffffff16600073ffffffffffffffffffffffffffffffffffffffff167f8be0079c531659141344cd1fd0a4f28419497f9722a3daafe3b4186f6b6457e060405160405180910390a387851115620006d7576040517f08c379a000000000000000000000000000000000000000000000000000000000815260040180806020018281038252602a81526020018062005ec9602a913960400191505060405180910390fd5b88601d60006101000a81548173ffffffffffffffffffffffffffffffffffffffff021916908373ffffffffffffffffffffffffffffffffffffffff16021790555083601660006101000a81548173ffffffffffffffffffffffffffffffffffffffff021916908373ffffffffffffffffffffffffffffffffffffffff16021790555082601760006101000a81548173ffffffffffffffffffffffffffffffffffffffff021916908373ffffffffffffffffffffffffffffffffffffffff16021790555081601860006101000a81548173ffffffffffffffffffffffffffffffffffffffff021916908373ffffffffffffffffffffffffffffffffffffffff16021790555080601981905550505050505050505050505062000a50565b6200080e8160006200087e60201b6200308d1790919060201c565b8073ffffffffffffffffffffffffffffffffffffffff167f22380c05984257a1cb900161c713dd71d39e74820f1aea43bd3f1bdd2096129960405160405180910390a250565b6000600460009054906101000a900473ffffffffffffffffffffffffffffffffffffffff16905090565b6200089082826200096260201b60201c565b1562000904576040517f08c379a000000000000000000000000000000000000000000000000000000000815260040180806020018281038252601f8152602001807f526f6c65733a206163636f756e7420616c72656164792068617320726f6c650081525060200191505060405180910390fd5b60018260000160008373ffffffffffffffffffffffffffffffffffffffff1673ffffffffffffffffffffffffffffffffffffffff16815260200190815260200160002060006101000a81548160ff0219169083151502179055505050565b60008073ffffffffffffffffffffffffffffffffffffffff168273ffffffffffffffffffffffffffffffffffffffff161415620009eb576040517f08c379a000000000000000000000000000000000000000000000000000000000815260040180806020018281038252602281526020018062005f4e6022913960400191505060405180910390fd5b8260000160008373ffffffffffffffffffffffffffffffffffffffff1673ffffffffffffffffffffffffffffffffffffffff16815260200190815260200160002060009054906101000a900460ff16905092915050565b6112b48062004be283390190565b6141828062000a606000396000f3fe608060405260043610620002ba5760003560e01c80638f32d59b116200016f578063bffa55d511620000d3578063ec0de26e1162000085578063ec0de26e1462000d7c578063ec8ac4d81462000dd6578063ed5db8741462000e1d578063f2fde38b1462000e4b578063f45b9bed1462000ea0578063fc0c546a1462000ece57620002ba565b8063bffa55d51462000b41578063c040e6b81462000b96578063c440008e1462000bd3578063d6cd94731462000c2d578063e2ec6ec31462000c47578063e3a9db1a1462000d1357620002ba565b8063b3f05b97116200012d578063b3f05b971462000983578063b63e53e014620009b5578063b7a8807c1462000a0f578063b91d40011462000a3d578063bb5f747b1462000a6b578063bb8b2b471462000ad857620002ba565b80638f32d59b1462000830578063926f0c7b1462000862578063a3a3382b14620008bc578063a997f82f1462000916578063b25d7f54146200095557620002ba565b80634b6753bc116200022357806364ceed9911620001d557806364ceed9914620006ad578063715018a614620007075780637362d9c814620007215780637d3d65221462000776578063864329e314620007a85780638da5cb5b14620007d657620002ba565b80634b6753bc14620005915780634bb278f314620005bf5780634c5a628c14620005d95780634f93594514620005f3578063521eb273146200062557806353c08ea2146200067f57620002ba565b80633af32abf116200027d5780633af32abf14620003ff57806340193883146200046c5780634042b66f146200049a57806342e94c9014620004c857806346daa242146200053157806347535d7b146200055f57620002ba565b806310154bad14620002c75780631515bc2b146200031c578063291d9549146200034e5780632c4e722e14620003a3578063355274ea14620003d1575b620002c53362000f28565b005b348015620002d457600080fd5b506200031a60048036036020811015620002ed57600080fd5b81019080803573ffffffffffffffffffffffffffffffffffffffff16906020019092919050505062001096565b005b3480156200032957600080fd5b506200033462001106565b604051808215151515815260200191505060405180910390f35b3480156200035b57600080fd5b50620003a1600480360360208110156200037457600080fd5b81019080803573ffffffffffffffffffffffffffffffffffffffff16906020019092919050505062001112565b005b348015620003b057600080fd5b50620003bb62001182565b6040518082815260200191505060405180910390f35b348015620003de57600080fd5b50620003e9620011fd565b6040518082815260200191505060405180910390f35b3480156200040c57600080fd5b5062000452600480360360208110156200042557600080fd5b81019080803573ffffffffffffffffffffffffffffffffffffffff16906020019092919050505062001207565b604051808215151515815260200191505060405180910390f35b3480156200047957600080fd5b506200048462001226565b6040518082815260200191505060405180910390f35b348015620004a757600080fd5b50620004b262001230565b6040518082815260200191505060405180910390f35b348015620004d557600080fd5b506200051b60048036036020811015620004ee57600080fd5b81019080803573ffffffffffffffffffffffffffffffffffffffff1690602001909291905050506200123a565b6040518082815260200191505060405180910390f35b3480156200053e57600080fd5b506200054962001252565b6040518082815260200191505060405180910390f35b3480156200056c57600080fd5b506200057762001258565b604051808215151515815260200191505060405180910390f35b3480156200059e57600080fd5b50620005a962001274565b6040518082815260200191505060405180910390f35b348015620005cc57600080fd5b50620005d76200127e565b005b348015620005e657600080fd5b50620005f1620013b6565b005b3480156200060057600080fd5b506200060b620013c3565b604051808215151515815260200191505060405180910390f35b3480156200063257600080fd5b506200063d620013d9565b604051808273ffffffffffffffffffffffffffffffffffffffff1673ffffffffffffffffffffffffffffffffffffffff16815260200191505060405180910390f35b3480156200068c57600080fd5b506200069762001403565b6040518082815260200191505060405180910390f35b348015620006ba57600080fd5b50620006c562001409565b604051808273ffffffffffffffffffffffffffffffffffffffff1673ffffffffffffffffffffffffffffffffffffffff16815260200191505060405180910390f35b3480156200071457600080fd5b506200071f6200142f565b005b3480156200072e57600080fd5b5062000774600480360360208110156200074757600080fd5b81019080803573ffffffffffffffffffffffffffffffffffffffff1690602001909291905050506200156d565b005b3480156200078357600080fd5b506200078e620015dd565b604051808215151515815260200191505060405180910390f35b348015620007b557600080fd5b50620007c0620015f3565b6040518082815260200191505060405180910390f35b348015620007e357600080fd5b50620007ee620015f9565b604051808273ffffffffffffffffffffffffffffffffffffffff1673ffffffffffffffffffffffffffffffffffffffff16815260200191505060405180910390f35b3480156200083d57600080fd5b506200084862001623565b604051808215151515815260200191505060405180910390f35b3480156200086f57600080fd5b506200087a6200167b565b604051808273ffffffffffffffffffffffffffffffffffffffff1673ffffffffffffffffffffffffffffffffffffffff16815260200191505060405180910390f35b348015620008c957600080fd5b50620008d4620016a1565b604051808273ffffffffffffffffffffffffffffffffffffffff1673ffffffffffffffffffffffffffffffffffffffff16815260200191505060405180910390f35b3480156200092357600080fd5b5062000953600480360360208110156200093c57600080fd5b8101908080359060200190929190505050620016c7565b005b3480156200096257600080fd5b506200096d620017c4565b6040518082815260200191505060405180910390f35b3480156200099057600080fd5b506200099b620017ca565b604051808215151515815260200191505060405180910390f35b348015620009c257600080fd5b50620009cd620017e1565b604051808273ffffffffffffffffffffffffffffffffffffffff1673ffffffffffffffffffffffffffffffffffffffff16815260200191505060405180910390f35b34801562000a1c57600080fd5b5062000a2762001807565b6040518082815260200191505060405180910390f35b34801562000a4a57600080fd5b5062000a5562001811565b6040518082815260200191505060405180910390f35b34801562000a7857600080fd5b5062000abe6004803603602081101562000a9157600080fd5b81019080803573ffffffffffffffffffffffffffffffffffffffff16906020019092919050505062001817565b604051808215151515815260200191505060405180910390f35b34801562000ae557600080fd5b5062000b2b6004803603602081101562000afe57600080fd5b81019080803573ffffffffffffffffffffffffffffffffffffffff16906020019092919050505062001836565b6040518082815260200191505060405180910390f35b34801562000b4e57600080fd5b5062000b946004803603602081101562000b6757600080fd5b81019080803573ffffffffffffffffffffffffffffffffffffffff1690602001909291905050506200187f565b005b34801562000ba357600080fd5b5062000bae62001a00565b6040518082600181111562000bbf57fe5b60ff16815260200191505060405180910390f35b34801562000be057600080fd5b5062000beb62001a13565b604051808273ffffffffffffffffffffffffffffffffffffffff1673ffffffffffffffffffffffffffffffffffffffff16815260200191505060405180910390f35b34801562000c3a57600080fd5b5062000c4562001a39565b005b34801562000c5457600080fd5b5062000d116004803603602081101562000c6d57600080fd5b810190808035906020019064010000000081111562000c8b57600080fd5b82018360208201111562000c9e57600080fd5b8035906020019184602083028401116401000000008311171562000cc157600080fd5b919080806020026020016040519081016040528093929190818152602001838360200280828437600081840152601f19601f82011690508083019250505050505050919291929050505062001a46565b005b34801562000d2057600080fd5b5062000d666004803603602081101562000d3957600080fd5b81019080803573ffffffffffffffffffffffffffffffffffffffff16906020019092919050505062001ae9565b6040518082815260200191505060405180910390f35b34801562000d8957600080fd5b5062000d9462001bcf565b604051808273ffffffffffffffffffffffffffffffffffffffff1673ffffffffffffffffffffffffffffffffffffffff16815260200191505060405180910390f35b62000e1b6004803603602081101562000dee57600080fd5b81019080803573ffffffffffffffffffffffffffffffffffffffff16906020019092919050505062000f28565b005b34801562000e2a57600080fd5b5062000e3562001bf5565b6040518082815260200191505060405180910390f35b34801562000e5857600080fd5b5062000e9e6004803603602081101562000e7157600080fd5b81019080803573ffffffffffffffffffffffffffffffffffffffff16906020019092919050505062001bfb565b005b34801562000ead57600080fd5b5062000eb862001c86565b6040518082815260200191505060405180910390f35b34801562000edb57600080fd5b5062000ee662001c8c565b604051808273ffffffffffffffffffffffffffffffffffffffff1673ffffffffffffffffffffffffffffffffffffffff16815260200191505060405180910390f35b600160026000828254019250508190555060006002549050600034905062000f51838262001cb6565b600062000f5e8262001d91565b905062000f778260065462001db890919063ffffffff16565b60068190555062000f89848262001e41565b8373ffffffffffffffffffffffffffffffffffffffff163373ffffffffffffffffffffffffffffffffffffffff167f6faf93231a456e552dbc9961f58d9713ee4f2e69d15f1975b050ef0911053a7b8484604051808381526020018281526020019250505060405180910390a362001002848362001e51565b6200100c62001eec565b62001018848362001fb2565b5050600254811462001092576040517f08c379a000000000000000000000000000000000000000000000000000000000815260040180806020018281038252601f8152602001807f5265656e7472616e637947756172643a207265656e7472616e742063616c6c0081525060200191505060405180910390fd5b5050565b620010a13362001817565b620010f8576040517f08c379a0000000000000000000000000000000000000000000000000000000008152600401808060200182810382526040815260200180620040836040913960400191505060405180910390fd5b620011038162001fb6565b50565b60006009544211905090565b6200111d3362001817565b62001174576040517f08c379a0000000000000000000000000000000000000000000000000000000008152600401808060200182810382526040815260200180620040836040913960400191505060405180910390fd5b6200117f8162002012565b50565b60008060018111156200119157fe5b601160009054906101000a900460ff166001811115620011ad57fe5b1415620011bf576101f49050620011fa565b600180811115620011cc57fe5b601160009054906101000a900460ff166001811115620011e857fe5b1415620011f95760fa9050620011fa565b5b90565b6000600754905090565b60006200121f8260016200206e90919063ffffffff16565b9050919050565b6000600b54905090565b6000600654905090565b60106020528060005260406000206000915090505481565b60125481565b600060085442101580156200126f57506009544211155b905090565b6000600954905090565b600a60009054906101000a900460ff1615620012e6576040517f08c379a0000000000000000000000000000000000000000000000000000000008152600401808060200182810382526027815260200180620040c36027913960400191505060405180910390fd5b620012f062001106565b62001363576040517f08c379a00000000000000000000000000000000000000000000000000000000081526004018080602001828103825260208152602001807f46696e616c697a61626c6543726f776473616c653a206e6f7420636c6f73656481525060200191505060405180910390fd5b6001600a60006101000a81548160ff021916908315150217905550620013886200214e565b7f9270cc390c096600a1c17c44345a1ba689fafd99d97487b10cfccf86cf73183660405160405180910390a1565b620013c13362002b8d565b565b6000600754620013d262001230565b1015905090565b6000600460009054906101000a900473ffffffffffffffffffffffffffffffffffffffff16905090565b60135481565b601a60009054906101000a900473ffffffffffffffffffffffffffffffffffffffff1681565b6200143962001623565b620014ac576040517f08c379a00000000000000000000000000000000000000000000000000000000081526004018080602001828103825260208152602001807f4f776e61626c653a2063616c6c6572206973206e6f7420746865206f776e657281525060200191505060405180910390fd5b600073ffffffffffffffffffffffffffffffffffffffff16600d60009054906101000a900473ffffffffffffffffffffffffffffffffffffffff1673ffffffffffffffffffffffffffffffffffffffff167f8be0079c531659141344cd1fd0a4f28419497f9722a3daafe3b4186f6b6457e060405160405180910390a36000600d60006101000a81548173ffffffffffffffffffffffffffffffffffffffff021916908373ffffffffffffffffffffffffffffffffffffffff160217905550565b620015783362001817565b620015cf576040517f08c379a0000000000000000000000000000000000000000000000000000000008152600401808060200182810382526040815260200180620040836040913960400191505060405180910390fd5b620015da8162002be9565b50565b6000600b54620015ec62001230565b1015905090565b60145481565b6000600d60009054906101000a900473ffffffffffffffffffffffffffffffffffffffff16905090565b6000600d60009054906101000a900473ffffffffffffffffffffffffffffffffffffffff1673ffffffffffffffffffffffffffffffffffffffff163373ffffffffffffffffffffffffffffffffffffffff1614905090565b601860009054906101000a900473ffffffffffffffffffffffffffffffffffffffff1681565b601760009054906101000a900473ffffffffffffffffffffffffffffffffffffffff1681565b620016d162001623565b62001744576040517f08c379a00000000000000000000000000000000000000000000000000000000081526004018080602001828103825260208152602001807f4f776e61626c653a2063616c6c6572206973206e6f7420746865206f776e657281525060200191505060405180910390fd5b80600060018111156200175357fe5b141562001785576000601160006101000a81548160ff021916908360018111156200177a57fe5b0217905550620017c1565b806001808111156200179357fe5b1415620017c0576001601160006101000a81548160ff02191690836001811115620017ba57fe5b02179055505b5b50565b600e5481565b6000600a60009054906101000a900460ff16905090565b601c60009054906101000a900473ffffffffffffffffffffffffffffffffffffffff1681565b6000600854905090565b60195481565b60006200182f8260006200206e90919063ffffffff16565b9050919050565b6000601060008373ffffffffffffffffffffffffffffffffffffffff1673ffffffffffffffffffffffffffffffffffffffff168152602001908152602001600020549050919050565b62001889620017ca565b620018e0576040517f08c379a0000000000000000000000000000000000000000000000000000000008152600401808060200182810382526022815260200180620041356022913960400191505060405180910390fd5b620018ea620015dd565b1562001942576040517f08c379a0000000000000000000000000000000000000000000000000000000008152600401808060200182810382526021815260200180620040ea6021913960400191505060405180910390fd5b600c60009054906101000a900473ffffffffffffffffffffffffffffffffffffffff1673ffffffffffffffffffffffffffffffffffffffff166351cff8d9826040518263ffffffff1660e01b8152600401808273ffffffffffffffffffffffffffffffffffffffff1673ffffffffffffffffffffffffffffffffffffffff168152602001915050600060405180830381600087803b158015620019e457600080fd5b505af1158015620019f9573d6000803e3d6000fd5b5050505050565b601160009054906101000a900460ff1681565b601660009054906101000a900473ffffffffffffffffffffffffffffffffffffffff1681565b62001a443362002012565b565b62001a513362001817565b62001aa8576040517f08c379a0000000000000000000000000000000000000000000000000000000008152600401808060200182810382526040815260200180620040836040913960400191505060405180910390fd5b60008090505b815181101562001ae55762001ad782828151811062001ac957fe5b602002602001015162001096565b808060010191505062001aae565b5050565b6000600c60009054906101000a900473ffffffffffffffffffffffffffffffffffffffff1673ffffffffffffffffffffffffffffffffffffffff1663e3a9db1a836040518263ffffffff1660e01b8152600401808273ffffffffffffffffffffffffffffffffffffffff1673ffffffffffffffffffffffffffffffffffffffff16815260200191505060206040518083038186803b15801562001b8b57600080fd5b505afa15801562001ba0573d6000803e3d6000fd5b505050506040513d602081101562001bb757600080fd5b81019080805190602001909291905050509050919050565b601b60009054906101000a900473ffffffffffffffffffffffffffffffffffffffff1681565b600f5481565b62001c0562001623565b62001c78576040517f08c379a00000000000000000000000000000000000000000000000000000000081526004018080602001828103825260208152602001807f4f776e61626c653a2063616c6c6572206973206e6f7420746865206f776e657281525060200191505060405180910390fd5b62001c838162002c45565b50565b60155481565b6000600360009054906101000a900473ffffffffffffffffffffffffffffffffffffffff16905090565b62001cc2828262002d8d565b6000601060008473ffffffffffffffffffffffffffffffffffffffff1673ffffffffffffffffffffffffffffffffffffffff168152602001908152602001600020549050600062001d1d838362001db890919063ffffffff16565b9050600e54811015801562001d345750600f548111155b62001d8b576040517f08c379a000000000000000000000000000000000000000000000000000000000815260040180806020018281038252604581526020018062003ffb6045913960600191505060405180910390fd5b50505050565b600062001db162001da162001182565b8362002dff90919063ffffffff16565b9050919050565b60008082840190508381101562001e37576040517f08c379a000000000000000000000000000000000000000000000000000000000815260040180806020018281038252601b8152602001807f536166654d6174683a206164646974696f6e206f766572666c6f77000000000081525060200191505060405180910390fd5b8091505092915050565b62001e4d828262002e8a565b5050565b62001ea581601060008573ffffffffffffffffffffffffffffffffffffffff1673ffffffffffffffffffffffffffffffffffffffff1681526020019081526020016000205462001db890919063ffffffff16565b601060008473ffffffffffffffffffffffffffffffffffffffff1673ffffffffffffffffffffffffffffffffffffffff168152602001908152602001600020819055505050565b6000600181111562001efa57fe5b601160009054906101000a900460ff16600181111562001f1657fe5b141562001f745762001f27620013d9565b73ffffffffffffffffffffffffffffffffffffffff166108fc349081150290604051600060405180830381858888f1935050505015801562001f6d573d6000803e3d6000fd5b5062001fb0565b60018081111562001f8157fe5b601160009054906101000a900460ff16600181111562001f9d57fe5b141562001faf5762001fae62002fcf565b5b5b565b5050565b62001fcc8160016200308d90919063ffffffff16565b8073ffffffffffffffffffffffffffffffffffffffff167fee1504a83b6d4a361f4c1dc78ab59bfa30d6a3b6612c403e86bb01ef2984295f60405160405180910390a250565b620020288160016200316b90919063ffffffff16565b8073ffffffffffffffffffffffffffffffffffffffff167f270d9b30cf5b0793bbfd54c9d5b94aeb49462b8148399000265144a8722da6b660405160405180910390a250565b60008073ffffffffffffffffffffffffffffffffffffffff168273ffffffffffffffffffffffffffffffffffffffff161415620020f7576040517f08c379a0000000000000000000000000000000000000000000000000000000008152600401808060200182810382526022815260200180620040616022913960400191505060405180910390fd5b8260000160008373ffffffffffffffffffffffffffffffffffffffff1673ffffffffffffffffffffffffffffffffffffffff16815260200190815260200160002060009054906101000a900460ff16905092915050565b6200215862001623565b620021cb576040517f08c379a00000000000000000000000000000000000000000000000000000000081526004018080602001828103825260208152602001807f4f776e61626c653a2063616c6c6572206973206e6f7420746865206f776e657281525060200191505060405180910390fd5b620021d5620015dd565b1562002b81576000601d60009054906101000a900473ffffffffffffffffffffffffffffffffffffffff1673ffffffffffffffffffffffffffffffffffffffff166318160ddd6040518163ffffffff1660e01b815260040160206040518083038186803b1580156200224657600080fd5b505afa1580156200225b573d6000803e3d6000fd5b505050506040513d60208110156200227257600080fd5b810190808051906020019092919050505090506000620022b36064620022a4601254856200322c90919063ffffffff16565b62002dff90919063ffffffff16565b9050601d60009054906101000a900473ffffffffffffffffffffffffffffffffffffffff16601660009054906101000a900473ffffffffffffffffffffffffffffffffffffffff166019546040516200230c90620036a5565b808473ffffffffffffffffffffffffffffffffffffffff1673ffffffffffffffffffffffffffffffffffffffff1681526020018373ffffffffffffffffffffffffffffffffffffffff1673ffffffffffffffffffffffffffffffffffffffff1681526020018281526020019350505050604051809103906000f08015801562002399573d6000803e3d6000fd5b50601a60006101000a81548173ffffffffffffffffffffffffffffffffffffffff021916908373ffffffffffffffffffffffffffffffffffffffff160217905550601d60009054906101000a900473ffffffffffffffffffffffffffffffffffffffff16601760009054906101000a900473ffffffffffffffffffffffffffffffffffffffff166019546040516200243190620036a5565b808473ffffffffffffffffffffffffffffffffffffffff1673ffffffffffffffffffffffffffffffffffffffff1681526020018373ffffffffffffffffffffffffffffffffffffffff1673ffffffffffffffffffffffffffffffffffffffff1681526020018281526020019350505050604051809103906000f080158015620024be573d6000803e3d6000fd5b50601b60006101000a81548173ffffffffffffffffffffffffffffffffffffffff021916908373ffffffffffffffffffffffffffffffffffffffff160217905550601d60009054906101000a900473ffffffffffffffffffffffffffffffffffffffff16601860009054906101000a900473ffffffffffffffffffffffffffffffffffffffff166019546040516200255690620036a5565b808473ffffffffffffffffffffffffffffffffffffffff1673ffffffffffffffffffffffffffffffffffffffff1681526020018373ffffffffffffffffffffffffffffffffffffffff1673ffffffffffffffffffffffffffffffffffffffff1681526020018281526020019350505050604051809103906000f080158015620025e3573d6000803e3d6000fd5b50601c60006101000a81548173ffffffffffffffffffffffffffffffffffffffff021916908373ffffffffffffffffffffffffffffffffffffffff160217905550601d60009054906101000a900473ffffffffffffffffffffffffffffffffffffffff1673ffffffffffffffffffffffffffffffffffffffff166340c10f19601a60009054906101000a900473ffffffffffffffffffffffffffffffffffffffff166200269c601354856200322c90919063ffffffff16565b6040518363ffffffff1660e01b8152600401808373ffffffffffffffffffffffffffffffffffffffff1673ffffffffffffffffffffffffffffffffffffffff16815260200182815260200192505050602060405180830381600087803b1580156200270657600080fd5b505af11580156200271b573d6000803e3d6000fd5b505050506040513d60208110156200273257600080fd5b810190808051906020019092919050505050601d60009054906101000a900473ffffffffffffffffffffffffffffffffffffffff1673ffffffffffffffffffffffffffffffffffffffff166340c10f19601b60009054906101000a900473ffffffffffffffffffffffffffffffffffffffff16620027bc601454856200322c90919063ffffffff16565b6040518363ffffffff1660e01b8152600401808373ffffffffffffffffffffffffffffffffffffffff1673ffffffffffffffffffffffffffffffffffffffff16815260200182815260200192505050602060405180830381600087803b1580156200282657600080fd5b505af11580156200283b573d6000803e3d6000fd5b505050506040513d60208110156200285257600080fd5b810190808051906020019092919050505050601d60009054906101000a900473ffffffffffffffffffffffffffffffffffffffff1673ffffffffffffffffffffffffffffffffffffffff166340c10f19601c60009054906101000a900473ffffffffffffffffffffffffffffffffffffffff16620028dc601554856200322c90919063ffffffff16565b6040518363ffffffff1660e01b8152600401808373ffffffffffffffffffffffffffffffffffffffff1673ffffffffffffffffffffffffffffffffffffffff16815260200182815260200192505050602060405180830381600087803b1580156200294657600080fd5b505af11580156200295b573d6000803e3d6000fd5b505050506040513d60208110156200297257600080fd5b810190808051906020019092919050505050601d60009054906101000a900473ffffffffffffffffffffffffffffffffffffffff1673ffffffffffffffffffffffffffffffffffffffff16633092afd5306040518263ffffffff1660e01b8152600401808273ffffffffffffffffffffffffffffffffffffffff1673ffffffffffffffffffffffffffffffffffffffff168152602001915050600060405180830381600087803b15801562002a2657600080fd5b505af115801562002a3b573d6000803e3d6000fd5b50505050601d60009054906101000a900473ffffffffffffffffffffffffffffffffffffffff1673ffffffffffffffffffffffffffffffffffffffff16633f4ba83a6040518163ffffffff1660e01b8152600401600060405180830381600087803b15801562002aaa57600080fd5b505af115801562002abf573d6000803e3d6000fd5b50505050601d60009054906101000a900473ffffffffffffffffffffffffffffffffffffffff1673ffffffffffffffffffffffffffffffffffffffff16636b2c0f55306040518263ffffffff1660e01b8152600401808273ffffffffffffffffffffffffffffffffffffffff1673ffffffffffffffffffffffffffffffffffffffff168152602001915050600060405180830381600087803b15801562002b6557600080fd5b505af115801562002b7a573d6000803e3d6000fd5b5050505050505b62002b8b620032bd565b565b62002ba38160006200316b90919063ffffffff16565b8073ffffffffffffffffffffffffffffffffffffffff167f0a8eb35e5ca14b3d6f28e4abf2f128dbab231a58b56e89beb5d636115001e16560405160405180910390a250565b62002bff8160006200308d90919063ffffffff16565b8073ffffffffffffffffffffffffffffffffffffffff167f22380c05984257a1cb900161c713dd71d39e74820f1aea43bd3f1bdd2096129960405160405180910390a250565b600073ffffffffffffffffffffffffffffffffffffffff168173ffffffffffffffffffffffffffffffffffffffff16141562002ccd576040517f08c379a000000000000000000000000000000000000000000000000000000000815260040180806020018281038252602681526020018062003fb46026913960400191505060405180910390fd5b8073ffffffffffffffffffffffffffffffffffffffff16600d60009054906101000a900473ffffffffffffffffffffffffffffffffffffffff1673ffffffffffffffffffffffffffffffffffffffff167f8be0079c531659141344cd1fd0a4f28419497f9722a3daafe3b4186f6b6457e060405160405180910390a380600d60006101000a81548173ffffffffffffffffffffffffffffffffffffffff021916908373ffffffffffffffffffffffffffffffffffffffff16021790555050565b62002d988262001207565b62002def576040517f08c379a000000000000000000000000000000000000000000000000000000000815260040180806020018281038252604181526020018062003f736041913960600191505060405180910390fd5b62002dfb82826200346c565b5050565b60008083141562002e14576000905062002e84565b600082840290508284828162002e2657fe5b041462002e7f576040517f08c379a0000000000000000000000000000000000000000000000000000000008152600401808060200182810382526021815260200180620040406021913960400191505060405180910390fd5b809150505b92915050565b62002e9462001c8c565b73ffffffffffffffffffffffffffffffffffffffff166340c10f1983836040518363ffffffff1660e01b8152600401808373ffffffffffffffffffffffffffffffffffffffff1673ffffffffffffffffffffffffffffffffffffffff16815260200182815260200192505050602060405180830381600087803b15801562002f1b57600080fd5b505af115801562002f30573d6000803e3d6000fd5b505050506040513d602081101562002f4757600080fd5b810190808051906020019092919050505062002fcb576040517f08c379a000000000000000000000000000000000000000000000000000000000815260040180806020018281038252601f8152602001807f4d696e74656443726f776473616c653a206d696e74696e67206661696c65640081525060200191505060405180910390fd5b5050565b600c60009054906101000a900473ffffffffffffffffffffffffffffffffffffffff1673ffffffffffffffffffffffffffffffffffffffff1663f340fa0134336040518363ffffffff1660e01b8152600401808273ffffffffffffffffffffffffffffffffffffffff1673ffffffffffffffffffffffffffffffffffffffff1681526020019150506000604051808303818588803b1580156200307157600080fd5b505af115801562003086573d6000803e3d6000fd5b5050505050565b6200309982826200206e565b156200310d576040517f08c379a000000000000000000000000000000000000000000000000000000000815260040180806020018281038252601f8152602001807f526f6c65733a206163636f756e7420616c72656164792068617320726f6c650081525060200191505060405180910390fd5b60018260000160008373ffffffffffffffffffffffffffffffffffffffff1673ffffffffffffffffffffffffffffffffffffffff16815260200190815260200160002060006101000a81548160ff0219169083151502179055505050565b6200317782826200206e565b620031ce576040517f08c379a000000000000000000000000000000000000000000000000000000000815260040180806020018281038252602181526020018062003fda6021913960400191505060405180910390fd5b60008260000160008373ffffffffffffffffffffffffffffffffffffffff1673ffffffffffffffffffffffffffffffffffffffff16815260200190815260200160002060006101000a81548160ff0219169083151502179055505050565b6000808211620032a4576040517f08c379a000000000000000000000000000000000000000000000000000000000815260040180806020018281038252601a8152602001807f536166654d6174683a206469766973696f6e206279207a65726f00000000000081525060200191505060405180910390fd5b6000828481620032b057fe5b0490508091505092915050565b620032c7620015dd565b15620033db57600c60009054906101000a900473ffffffffffffffffffffffffffffffffffffffff1673ffffffffffffffffffffffffffffffffffffffff166343d726d66040518163ffffffff1660e01b8152600401600060405180830381600087803b1580156200333857600080fd5b505af11580156200334d573d6000803e3d6000fd5b50505050600c60009054906101000a900473ffffffffffffffffffffffffffffffffffffffff1673ffffffffffffffffffffffffffffffffffffffff16639af6549a6040518163ffffffff1660e01b8152600401600060405180830381600087803b158015620033bc57600080fd5b505af1158015620033d1573d6000803e3d6000fd5b5050505062003460565b600c60009054906101000a900473ffffffffffffffffffffffffffffffffffffffff1673ffffffffffffffffffffffffffffffffffffffff16638c52dc416040518163ffffffff1660e01b8152600401600060405180830381600087803b1580156200344657600080fd5b505af11580156200345b573d6000803e3d6000fd5b505050505b6200346a620034f9565b565b6200347662001258565b620034e9576040517f08c379a00000000000000000000000000000000000000000000000000000000081526004018080602001828103825260188152602001807f54696d656443726f776473616c653a206e6f74206f70656e000000000000000081525060200191505060405180910390fd5b620034f58282620034fb565b5050565b565b620035078282620035a1565b60075462003528826200351962001230565b62001db890919063ffffffff16565b11156200359d576040517f08c379a000000000000000000000000000000000000000000000000000000000815260040180806020018281038252601d8152602001807f43617070656443726f776473616c653a2063617020657863656564656400000081525060200191505060405180910390fd5b5050565b600073ffffffffffffffffffffffffffffffffffffffff168273ffffffffffffffffffffffffffffffffffffffff16141562003629576040517f08c379a000000000000000000000000000000000000000000000000000000000815260040180806020018281038252602a8152602001806200410b602a913960400191505060405180910390fd5b6000811415620036a1576040517f08c379a00000000000000000000000000000000000000000000000000000000081526004018080602001828103825260198152602001807f43726f776473616c653a20776569416d6f756e7420697320300000000000000081525060200191505060405180910390fd5b5050565b6108bf80620036b48339019056fe608060405234801561001057600080fd5b506040516060806108bf8339810180604052606081101561003057600080fd5b810190808051906020019092919080519060200190929190805190602001909291905050504281116100ad576040517f08c379a000000000000000000000000000000000000000000000000000000000815260040180806020018281038252603281526020018061088d6032913960400191505060405180910390fd5b826000806101000a81548173ffffffffffffffffffffffffffffffffffffffff021916908373ffffffffffffffffffffffffffffffffffffffff16021790555081600160006101000a81548173ffffffffffffffffffffffffffffffffffffffff021916908373ffffffffffffffffffffffffffffffffffffffff16021790555080600281905550505050610746806101476000396000f3fe608060405234801561001057600080fd5b506004361061004c5760003560e01c806338af3eed1461005157806386d1a69f1461009b578063b91d4001146100a5578063fc0c546a146100c3575b600080fd5b61005961010d565b604051808273ffffffffffffffffffffffffffffffffffffffff1673ffffffffffffffffffffffffffffffffffffffff16815260200191505060405180910390f35b6100a3610137565b005b6100ad610339565b6040518082815260200191505060405180910390f35b6100cb610343565b604051808273ffffffffffffffffffffffffffffffffffffffff1673ffffffffffffffffffffffffffffffffffffffff16815260200191505060405180910390f35b6000600160009054906101000a900473ffffffffffffffffffffffffffffffffffffffff16905090565b600254421015610192576040517f08c379a000000000000000000000000000000000000000000000000000000000815260040180806020018281038252603281526020018061069c6032913960400191505060405180910390fd5b60008060009054906101000a900473ffffffffffffffffffffffffffffffffffffffff1673ffffffffffffffffffffffffffffffffffffffff166370a08231306040518263ffffffff1660e01b8152600401808273ffffffffffffffffffffffffffffffffffffffff1673ffffffffffffffffffffffffffffffffffffffff16815260200191505060206040518083038186803b15801561023257600080fd5b505afa158015610246573d6000803e3d6000fd5b505050506040513d602081101561025c57600080fd5b81019080805190602001909291905050509050600081116102c8576040517f08c379a00000000000000000000000000000000000000000000000000000000081526004018080602001828103825260238152602001806106f86023913960400191505060405180910390fd5b610336600160009054906101000a900473ffffffffffffffffffffffffffffffffffffffff16826000809054906101000a900473ffffffffffffffffffffffffffffffffffffffff1673ffffffffffffffffffffffffffffffffffffffff1661036c9092919063ffffffff16565b50565b6000600254905090565b60008060009054906101000a900473ffffffffffffffffffffffffffffffffffffffff16905090565b610438838473ffffffffffffffffffffffffffffffffffffffff1663a9059cbb905060e01b8484604051602401808373ffffffffffffffffffffffffffffffffffffffff1673ffffffffffffffffffffffffffffffffffffffff16815260200182815260200192505050604051602081830303815290604052907bffffffffffffffffffffffffffffffffffffffffffffffffffffffff19166020820180517bffffffffffffffffffffffffffffffffffffffffffffffffffffffff838183161783525050505061043d565b505050565b61045c8273ffffffffffffffffffffffffffffffffffffffff16610688565b6104ce576040517f08c379a000000000000000000000000000000000000000000000000000000000815260040180806020018281038252601f8152602001807f5361666545524332303a2063616c6c20746f206e6f6e2d636f6e74726163740081525060200191505060405180910390fd5b600060608373ffffffffffffffffffffffffffffffffffffffff16836040518082805190602001908083835b6020831061051d57805182526020820191506020810190506020830392506104fa565b6001836020036101000a0380198251168184511680821785525050505050509050019150506000604051808303816000865af19150503d806000811461057f576040519150601f19603f3d011682016040523d82523d6000602084013e610584565b606091505b5091509150816105fc576040517f08c379a00000000000000000000000000000000000000000000000000000000081526004018080602001828103825260208152602001807f5361666545524332303a206c6f772d6c6576656c2063616c6c206661696c656481525060200191505060405180910390fd5b6000815111156106825780806020019051602081101561061b57600080fd5b8101908080519060200190929190505050610681576040517f08c379a000000000000000000000000000000000000000000000000000000000815260040180806020018281038252602a8152602001806106ce602a913960400191505060405180910390fd5b5b50505050565b600080823b90506000811191505091905056fe546f6b656e54696d656c6f636b3a2063757272656e742074696d65206973206265666f72652072656c656173652074696d655361666545524332303a204552433230206f7065726174696f6e20646964206e6f742073756363656564546f6b656e54696d656c6f636b3a206e6f20746f6b656e7320746f2072656c65617365a165627a7a72305820b9f4f3c8c5f915145eb1ee95d66c68667f174a4610a76af0323c8347caf668c20029546f6b656e54696d656c6f636b3a2072656c656173652074696d65206973206265666f72652063757272656e742074696d6557686974656c69737443726f776473616c653a2062656e656669636961727920646f65736e27742068617665207468652057686974656c697374656420726f6c654f776e61626c653a206e6577206f776e657220697320746865207a65726f2061646472657373526f6c65733a206163636f756e7420646f6573206e6f74206861766520726f6c65526571756972652077656920616d6f756e7420746f2062652067726561746572207468616e206d696e2063617020616e64206c657373207468616e20686172642063617021536166654d6174683a206d756c7469706c69636174696f6e206f766572666c6f77526f6c65733a206163636f756e7420697320746865207a65726f206164647265737357686974656c69737441646d696e526f6c653a2063616c6c657220646f6573206e6f742068617665207468652057686974656c69737441646d696e20726f6c6546696e616c697a61626c6543726f776473616c653a20616c72656164792066696e616c697a6564526566756e6461626c6543726f776473616c653a20676f616c207265616368656443726f776473616c653a2062656e656669636961727920697320746865207a65726f2061646472657373526566756e6461626c6543726f776473616c653a206e6f742066696e616c697a6564a165627a7a723058208e73fa7c731a240bdf3937b15df5fdbacb698f09cdd699ad287f85c8146a79050029608060405234801561001057600080fd5b506040516020806112b48339810180604052602081101561003057600080fd5b8101908080519060200190929190505050336000806101000a81548173ffffffffffffffffffffffffffffffffffffffff021916908373ffffffffffffffffffffffffffffffffffffffff1602179055507f4101e71e974f68df5e9730cc223280b41654676bbb052cdcc735c3337e64d2d96000809054906101000a900473ffffffffffffffffffffffffffffffffffffffff16604051808273ffffffffffffffffffffffffffffffffffffffff1673ffffffffffffffffffffffffffffffffffffffff16815260200191505060405180910390a1600073ffffffffffffffffffffffffffffffffffffffff168173ffffffffffffffffffffffffffffffffffffffff16141561018b576040517f08c379a000000000000000000000000000000000000000000000000000000000815260040180806020018281038252602d815260200180611287602d913960400191505060405180910390fd5b80600260016101000a81548173ffffffffffffffffffffffffffffffffffffffff021916908373ffffffffffffffffffffffffffffffffffffffff1602179055506000600260006101000a81548160ff021916908360028111156101eb57fe5b021790555050611087806102006000396000f3fe60806040526004361061009c5760003560e01c80638c52dc41116100645780638c52dc411461021a5780639af6549a14610231578063c19d93fb14610248578063c6dbdf6114610281578063e3a9db1a146102d8578063f340fa011461033d5761009c565b80632348238c146100a157806338af3eed146100f257806343d726d61461014957806351cff8d914610160578063685ca194146101b1575b600080fd5b3480156100ad57600080fd5b506100f0600480360360208110156100c457600080fd5b81019080803573ffffffffffffffffffffffffffffffffffffffff169060200190929190505050610381565b005b3480156100fe57600080fd5b50610107610573565b604051808273ffffffffffffffffffffffffffffffffffffffff1673ffffffffffffffffffffffffffffffffffffffff16815260200191505060405180910390f35b34801561015557600080fd5b5061015e61059d565b005b34801561016c57600080fd5b506101af6004803603602081101561018357600080fd5b81019080803573ffffffffffffffffffffffffffffffffffffffff169060200190929190505050610711565b005b3480156101bd57600080fd5b50610200600480360360208110156101d457600080fd5b81019080803573ffffffffffffffffffffffffffffffffffffffff16906020019092919050505061077b565b604051808215151515815260200191505060405180910390f35b34801561022657600080fd5b5061022f6107ad565b005b34801561023d57600080fd5b50610246610922565b005b34801561025457600080fd5b5061025d610a21565b6040518082600281111561026d57fe5b60ff16815260200191505060405180910390f35b34801561028d57600080fd5b50610296610a38565b604051808273ffffffffffffffffffffffffffffffffffffffff1673ffffffffffffffffffffffffffffffffffffffff16815260200191505060405180910390f35b3480156102e457600080fd5b50610327600480360360208110156102fb57600080fd5b81019080803573ffffffffffffffffffffffffffffffffffffffff169060200190929190505050610a61565b6040518082815260200191505060405180910390f35b61037f6004803603602081101561035357600080fd5b81019080803573ffffffffffffffffffffffffffffffffffffffff169060200190929190505050610aaa565b005b6000809054906101000a900473ffffffffffffffffffffffffffffffffffffffff1673ffffffffffffffffffffffffffffffffffffffff163373ffffffffffffffffffffffffffffffffffffffff1614610426576040517f08c379a000000000000000000000000000000000000000000000000000000000815260040180806020018281038252602c815260200180610ffe602c913960400191505060405180910390fd5b600073ffffffffffffffffffffffffffffffffffffffff168173ffffffffffffffffffffffffffffffffffffffff1614156104ac576040517f08c379a000000000000000000000000000000000000000000000000000000000815260040180806020018281038252602a815260200180610fd4602a913960400191505060405180910390fd5b806000806101000a81548173ffffffffffffffffffffffffffffffffffffffff021916908373ffffffffffffffffffffffffffffffffffffffff1602179055507f4101e71e974f68df5e9730cc223280b41654676bbb052cdcc735c3337e64d2d96000809054906101000a900473ffffffffffffffffffffffffffffffffffffffff16604051808273ffffffffffffffffffffffffffffffffffffffff1673ffffffffffffffffffffffffffffffffffffffff16815260200191505060405180910390a150565b6000600260019054906101000a900473ffffffffffffffffffffffffffffffffffffffff16905090565b6000809054906101000a900473ffffffffffffffffffffffffffffffffffffffff1673ffffffffffffffffffffffffffffffffffffffff163373ffffffffffffffffffffffffffffffffffffffff1614610642576040517f08c379a000000000000000000000000000000000000000000000000000000000815260040180806020018281038252602c815260200180610ffe602c913960400191505060405180910390fd5b6000600281111561064f57fe5b600260009054906101000a900460ff16600281111561066a57fe5b146106c0576040517f08c379a0000000000000000000000000000000000000000000000000000000008152600401808060200182810382526029815260200180610fab6029913960400191505060405180910390fd5b60028060006101000a81548160ff021916908360028111156106de57fe5b02179055507f088672c3a6e342f7cd94a65ba63b79df24a8973927b4d05d803c44bbf787d12f60405160405180910390a1565b61071a8161077b565b61076f576040517f08c379a0000000000000000000000000000000000000000000000000000000008152600401808060200182810382526033815260200180610f786033913960400191505060405180910390fd5b61077881610b34565b50565b60006001600281111561078a57fe5b600260009054906101000a900460ff1660028111156107a557fe5b149050919050565b6000809054906101000a900473ffffffffffffffffffffffffffffffffffffffff1673ffffffffffffffffffffffffffffffffffffffff163373ffffffffffffffffffffffffffffffffffffffff1614610852576040517f08c379a000000000000000000000000000000000000000000000000000000000815260040180806020018281038252602c815260200180610ffe602c913960400191505060405180910390fd5b6000600281111561085f57fe5b600260009054906101000a900460ff16600281111561087a57fe5b146108d0576040517f08c379a000000000000000000000000000000000000000000000000000000000815260040180806020018281038252603281526020018061102a6032913960400191505060405180910390fd5b6001600260006101000a81548160ff021916908360028111156108ef57fe5b02179055507f599d8e5a83cffb867d051598c4d70e805d59802d8081c1c7d6dffc5b6aca2b8960405160405180910390a1565b60028081111561092e57fe5b600260009054906101000a900460ff16600281111561094957fe5b1461099f576040517f08c379a0000000000000000000000000000000000000000000000000000000008152600401808060200182810382526038815260200180610f156038913960400191505060405180910390fd5b600260019054906101000a900473ffffffffffffffffffffffffffffffffffffffff1673ffffffffffffffffffffffffffffffffffffffff166108fc3073ffffffffffffffffffffffffffffffffffffffff16319081150290604051600060405180830381858888f19350505050158015610a1e573d6000803e3d6000fd5b50565b6000600260009054906101000a900460ff16905090565b60008060009054906101000a900473ffffffffffffffffffffffffffffffffffffffff16905090565b6000600160008373ffffffffffffffffffffffffffffffffffffffff1673ffffffffffffffffffffffffffffffffffffffff168152602001908152602001600020549050919050565b60006002811115610ab757fe5b600260009054906101000a900460ff166002811115610ad257fe5b14610b28576040517f08c379a000000000000000000000000000000000000000000000000000000000815260040180806020018281038252602b815260200180610f4d602b913960400191505060405180910390fd5b610b3181610cfb565b50565b6000809054906101000a900473ffffffffffffffffffffffffffffffffffffffff1673ffffffffffffffffffffffffffffffffffffffff163373ffffffffffffffffffffffffffffffffffffffff1614610bd9576040517f08c379a000000000000000000000000000000000000000000000000000000000815260040180806020018281038252602c815260200180610ffe602c913960400191505060405180910390fd5b6000600160008373ffffffffffffffffffffffffffffffffffffffff1673ffffffffffffffffffffffffffffffffffffffff1681526020019081526020016000205490506000600160008473ffffffffffffffffffffffffffffffffffffffff1673ffffffffffffffffffffffffffffffffffffffff168152602001908152602001600020819055508173ffffffffffffffffffffffffffffffffffffffff166108fc829081150290604051600060405180830381858888f19350505050158015610ca8573d6000803e3d6000fd5b508173ffffffffffffffffffffffffffffffffffffffff167f7084f5476618d8e60b11ef0d7d3f06914655adb8793e28ff7f018d4c76d505d5826040518082815260200191505060405180910390a25050565b6000809054906101000a900473ffffffffffffffffffffffffffffffffffffffff1673ffffffffffffffffffffffffffffffffffffffff163373ffffffffffffffffffffffffffffffffffffffff1614610da0576040517f08c379a000000000000000000000000000000000000000000000000000000000815260040180806020018281038252602c815260200180610ffe602c913960400191505060405180910390fd5b6000349050610df781600160008573ffffffffffffffffffffffffffffffffffffffff1673ffffffffffffffffffffffffffffffffffffffff16815260200190815260200160002054610e8c90919063ffffffff16565b600160008473ffffffffffffffffffffffffffffffffffffffff1673ffffffffffffffffffffffffffffffffffffffff168152602001908152602001600020819055508173ffffffffffffffffffffffffffffffffffffffff167f2da466a7b24304f47e87fa2e1e5a81b9831ce54fec19055ce277ca2f39ba42c4826040518082815260200191505060405180910390a25050565b600080828401905083811015610f0a576040517f08c379a000000000000000000000000000000000000000000000000000000000815260040180806020018281038252601b8152602001807f536166654d6174683a206164646974696f6e206f766572666c6f77000000000081525060200191505060405180910390fd5b809150509291505056fe526566756e64457363726f773a2062656e65666963696172792063616e206f6e6c79207769746864726177207768696c6520636c6f736564526566756e64457363726f773a2063616e206f6e6c79206465706f736974207768696c6520616374697665436f6e646974696f6e616c457363726f773a207061796565206973206e6f7420616c6c6f77656420746f207769746864726177526566756e64457363726f773a2063616e206f6e6c7920636c6f7365207768696c65206163746976655365636f6e646172793a206e6577207072696d61727920697320746865207a65726f20616464726573735365636f6e646172793a2063616c6c6572206973206e6f7420746865207072696d617279206163636f756e74526566756e64457363726f773a2063616e206f6e6c7920656e61626c6520726566756e6473207768696c6520616374697665a165627a7a723058208df3ead31fb543541caae996015e7a68e237b39790bf0b3f2cab82e14f8fbc3f0029526566756e64457363726f773a2062656e656669636961727920697320746865207a65726f206164647265737354696d656443726f776473616c653a206f70656e696e672074696d65206973206265666f72652063757272656e742074696d655265717569726520676f616c206973206c657373207468616e206f7220657175616c20746f206361702154696d656443726f776473616c653a206f70656e696e672074696d65206973206e6f74206265666f726520636c6f73696e672074696d6543726f776473616c653a20746f6b656e20697320746865207a65726f2061646472657373526f6c65733a206163636f756e7420697320746865207a65726f206164647265737343726f776473616c653a2077616c6c657420697320746865207a65726f2061646472657373",
  "source": "pragma solidity ^0.5.0;\r\n\r\nimport 'openzeppelin-solidity/contracts/crowdsale/Crowdsale.sol';\r\n// import 'openzeppelin-solidity/contracts/crowdsale/distribution/RefundableCrowdsale.sol';\r\nimport 'openzeppelin-solidity/contracts/crowdsale/emission/MintedCrowdsale.sol';\r\nimport 'openzeppelin-solidity/contracts/crowdsale/validation/CappedCrowdsale.sol';\r\nimport 'openzeppelin-solidity/contracts/crowdsale/validation/TimedCrowdsale.sol';\r\nimport 'openzeppelin-solidity/contracts/crowdsale/validation/WhitelistCrowdsale.sol';\r\nimport 'openzeppelin-solidity/contracts/ownership/Ownable.sol';\r\nimport './override/ViewRefundableCrowdsale.sol';\r\n// import 'openzeppelin-solidity/contracts/token/ERC20/ERC20.sol';\r\nimport './ViewToken.sol';\r\nimport 'openzeppelin-solidity/contracts/token/ERC20/TokenTimelock.sol';\r\n\r\n\r\n\r\ncontract ViewTokenCrowdsale is Crowdsale, MintedCrowdsale, CappedCrowdsale,\r\n                              TimedCrowdsale, WhitelistCrowdsale, /*RefundableCrowdsale*/ViewRefundableCrowdsale, Ownable {\r\n  // Minimum investor total contribution - 0.002 Ether\r\n  uint256 public investorMinCap = 20000000000000000;\r\n\r\n  // Maximum investor total contribution - 50 Ether\r\n  uint256 public investorHardCap = 50000000000000000000;\r\n\r\n  // Kepp track of contribution for each investor\r\n  mapping(address => uint256) public contributions;\r\n\r\n  // Crowdsale Stages\r\n  enum CrowdsaleStage { PreICO, ICO }\r\n  // Default to presale stage\r\n  CrowdsaleStage public stage = CrowdsaleStage.PreICO;\r\n\r\n  // Token Distribution\r\n  uint256 public tokenSalePercentage  = 70;\r\n  uint256 public foundersPercentage   = 10;\r\n  uint256 public foundationPercentage = 10;\r\n  uint256 public partnersPercentage    = 10;\r\n\r\n  address public foundersFund;\r\n  address public foundationFund;\r\n  address public partnersFund;\r\n\r\n  // Token time lock\r\n  uint256 public releaseTime;\r\n  address public foundersTimelock;\r\n  address public foundationTimelock;\r\n  address public partnersTimelock;\r\n\r\n  ViewToken viewToken;\r\n\r\n  //  _cap: takes maximum amount of wei accepted\r\n  // _openingTime, _closingTime are unix time\r\n  constructor(\r\n    uint256 _rate,\r\n    address payable _wallet,\r\n    ViewToken _token,\r\n    uint256 _cap,\r\n    uint256 _openingTime,\r\n    uint256 _closingTime,\r\n    uint256 _goal,\r\n    address _foundersAddress,\r\n    address _foundationAddress,\r\n    address _partnersAddress,\r\n    uint256 _releaseTime\r\n    )\r\n  Crowdsale(_rate, _wallet, _token)\r\n  CappedCrowdsale(_cap)\r\n  TimedCrowdsale(_openingTime, _closingTime)\r\n  ViewRefundableCrowdsale(_goal)\r\n  public {\r\n    // important!\r\n    require(_goal <= _cap, 'Require goal is less than or equal to cap!');\r\n    viewToken = _token;\r\n\r\n    foundersFund = _foundersAddress;\r\n    foundationFund = _foundationAddress;\r\n    partnersFund = _partnersAddress;\r\n\r\n    releaseTime = _releaseTime;\r\n  }\r\n\r\n  /**\r\n  * @dev Returns the amount contributed so far by a sepecific user.\r\n  * @param _beneficiary Address of contributor\r\n  * @return User contribution so far\r\n  */\r\n  function getUserContribution(address _beneficiary) public view returns(uint256) {\r\n    return contributions[_beneficiary];\r\n  }\r\n\r\n  /**\r\n  * @dev Extend parent behavior requiring purchase to respect investor min/max funding cap.\r\n  * @param _beneficiary Token purchaser\r\n  * @param _weiAmount Amount of wei contributed\r\n  */\r\n  function _preValidatePurchase(address _beneficiary, uint256 _weiAmount) internal view {\r\n    super._preValidatePurchase(_beneficiary, _weiAmount);\r\n    uint256 _existingContribution = contributions[_beneficiary];\r\n    uint256 _newContribution = _existingContribution.add(_weiAmount);\r\n    require (_newContribution >= investorMinCap &&\r\n             _newContribution <= investorHardCap,\r\n             'Require wei amount to be greater than min cap and less than hard cap!');\r\n  }\r\n\r\n  /**\r\n    * @dev Override for extensions that require an internal state to check for validity (current user contributions,\r\n    * etc.)\r\n    * @param _beneficiary Address receiving the tokens\r\n    * @param _weiAmount Value in wei involved in the purchase\r\n    */\r\n  function _updatePurchasingState(address _beneficiary, uint256 _weiAmount) internal {\r\n      contributions[_beneficiary] = contributions[_beneficiary].add(_weiAmount);\r\n  }\r\n\r\n  /**\r\n    * @dev add multiple address to the whitelist\r\n    * @param _accounts an array of addreses to be added to the whitelist\r\n    */\r\n  function addAddressesToWhitelist(address[] memory _accounts)\r\n    public\r\n    onlyWhitelistAdmin\r\n  {\r\n      for (uint256 account = 0; account < _accounts.length; account++) {\r\n          addWhitelisted(_accounts[account]);\r\n      }\r\n  }\r\n\r\n  /**\r\n    * @dev Allows admin to update the crowdsale stage\r\n    * @param _stage Crowdsale stage\r\n    */\r\n  function setCrowdsaleStage(uint _stage) public onlyOwner {\r\n    if(uint(CrowdsaleStage.PreICO) == _stage) {\r\n      stage = CrowdsaleStage.PreICO;\r\n    }\r\n    else if (uint(CrowdsaleStage.ICO) == _stage) {\r\n      stage = CrowdsaleStage.ICO;\r\n    }\r\n  }\r\n\r\n    /**\r\n     * @dev Override how to get token rate based on crowdsale stage\r\n     * @return the number of token units a buyer gets per wei.\r\n     */\r\n    function rate() public view returns (uint256) {\r\n      // Pre sale stage can get more tokens\r\n      if (stage == CrowdsaleStage.PreICO) {\r\n        return 500;\r\n      }\r\n      else if (stage == CrowdsaleStage.ICO) {\r\n        return 250;\r\n      }\r\n    }\r\n\r\n    /**\r\n     * @dev Override to extend the way in which ether is converted to tokens.\r\n     * @param weiAmount Value in wei to be converted into tokens\r\n     * @return Number of tokens that can be purchased with the specified _weiAmount\r\n     */\r\n    function _getTokenAmount(uint256 weiAmount) internal view returns (uint256) {\r\n        return weiAmount.mul(rate());\r\n    }\r\n\r\n    /**\r\n     * @dev Overrides Crowdsale fund forwarding, sending funds to escrow.\r\n     */\r\n    function _forwardFunds() internal {\r\n      if (stage == CrowdsaleStage.PreICO) {\r\n        wallet().transfer(msg.value);\r\n      }\r\n      else if (stage == CrowdsaleStage.ICO) {\r\n        super._forwardFunds();\r\n      }\r\n    }\r\n\r\n    /**\r\n     * @dev Can be overridden to add finalization logic. The overriding function\r\n     * should call super._finalization() to ensure the chain of finalization is\r\n     * executed entirely.\r\n     */\r\n    function _finalization() internal onlyOwner {\r\n      if(goalReached()) {\r\n        // Finish minting the token\r\n        uint256 _alreadyMinted = viewToken.totalSupply();\r\n        uint256 _finalTotalSupply = _alreadyMinted.div(tokenSalePercentage).mul(100);\r\n\r\n        foundersTimelock = address(new TokenTimelock(viewToken, foundersFund, releaseTime));\r\n        foundationTimelock = address(new TokenTimelock(viewToken, foundationFund, releaseTime));\r\n        partnersTimelock = address(new TokenTimelock(viewToken, partnersFund, releaseTime));\r\n\r\n        viewToken.mint(foundersTimelock, _finalTotalSupply.div(foundersPercentage));\r\n        viewToken.mint(foundationTimelock, _finalTotalSupply.div(foundationPercentage));\r\n        viewToken.mint(partnersTimelock, _finalTotalSupply.div(partnersPercentage));\r\n\r\n        // remove crowdsale from minter role\r\n        viewToken.removeMinter(address(this));\r\n\r\n        // Unpause the token\r\n        // Allow people to transfer tokens\r\n        viewToken.unpause();\r\n        viewToken.removePauser(address(this));\r\n        // Fill this in\r\n      }\r\n      super._finalization();\r\n    }\r\n}",
  "sourcePath": "F:/projects/blockchain/view_ico/contracts/ViewTokenCrowdsale.sol",
  "compiler": {
    "name": "solc",
    "version": "0.5.8+commit.23d335f2.Emscripten.clang"
  },
  "schemaVersion": "3.0.11",
  "updatedAt": "2019-06-25T01:26:35.807Z",
  "devdoc": {
    "methods": {
      "addAddressesToWhitelist(address[])": {
        "details": "add multiple address to the whitelist\r",
        "params": {
          "_accounts": "an array of addreses to be added to the whitelist\r"
        }
      },
      "buyTokens(address)": {
        "details": "low level token purchase ***DO NOT OVERRIDE*** This function has a non-reentrancy guard, so it shouldn't be called by another `nonReentrant` function.",
        "params": {
          "beneficiary": "Recipient of the token purchase"
        }
      },
      "cap()": {
        "return": "the cap of the crowdsale."
      },
      "capReached()": {
        "details": "Checks whether the cap has been reached.",
        "return": "Whether the cap was reached"
      },
      "claimRefund(address)": {
        "details": "Investors can claim refunds here if crowdsale is unsuccessful.\r",
        "params": {
          "refundee": "Whose refund will be claimed.\r"
        }
      },
      "closingTime()": {
        "return": "the crowdsale closing time."
      },
      "finalize()": {
        "details": "Must be called after crowdsale ends, to do some extra finalization work. Calls the contract's finalization function."
      },
      "finalized()": {
        "return": "true if the crowdsale is finalized, false otherwise."
      },
      "getUserContribution(address)": {
        "details": "Returns the amount contributed so far by a sepecific user.\r",
        "params": {
          "_beneficiary": "Address of contributor\r"
        },
        "return": "User contribution so far\r"
      },
      "goal()": {
        "return": "minimum amount of funds to be raised in wei.\r"
      },
      "goalReached()": {
        "details": "Checks whether funding goal was reached.\r",
        "return": "Whether funding goal was reached\r"
      },
      "hasClosed()": {
        "details": "Checks whether the period in which the crowdsale is open has already elapsed.",
        "return": "Whether crowdsale period has elapsed"
      },
      "isOpen()": {
        "return": "true if the crowdsale is open, false otherwise."
      },
      "isOwner()": {
        "details": "Returns true if the caller is the current owner."
      },
      "openingTime()": {
        "return": "the crowdsale opening time."
      },
      "owner()": {
        "details": "Returns the address of the current owner."
      },
      "rate()": {
        "details": "Override how to get token rate based on crowdsale stage\r",
        "return": "the number of token units a buyer gets per wei.\r"
      },
      "renounceOwnership()": {
        "details": "Leaves the contract without owner. It will not be possible to call `onlyOwner` functions anymore. Can only be called by the current owner.     * > Note: Renouncing ownership will leave the contract without an owner, thereby removing any functionality that is only available to the owner."
      },
      "setCrowdsaleStage(uint256)": {
        "details": "Allows admin to update the crowdsale stage\r",
        "params": {
          "_stage": "Crowdsale stage\r"
        }
      },
      "token()": {
        "return": "the token being sold."
      },
      "transferOwnership(address)": {
        "details": "Transfers ownership of the contract to a new account (`newOwner`). Can only be called by the current owner."
      },
      "wallet()": {
        "return": "the address where funds are collected."
      },
      "weiRaised()": {
        "return": "the amount of wei raised."
      }
    }
  },
  "userdoc": {
    "methods": {}
  }
}