{
  "contractName": "ViewTokenCrowdsale",
  "abi": [
    {
      "constant": true,
      "inputs": [],
      "name": "hasClosed",
      "outputs": [
        {
          "name": "",
          "type": "bool"
        }
      ],
      "payable": false,
      "stateMutability": "view",
      "type": "function"
    },
    {
      "constant": true,
      "inputs": [],
      "name": "rate",
      "outputs": [
        {
          "name": "",
          "type": "uint256"
        }
      ],
      "payable": false,
      "stateMutability": "view",
      "type": "function"
    },
    {
      "constant": true,
      "inputs": [],
      "name": "cap",
      "outputs": [
        {
          "name": "",
          "type": "uint256"
        }
      ],
      "payable": false,
      "stateMutability": "view",
      "type": "function"
    },
    {
      "constant": true,
      "inputs": [],
      "name": "weiRaised",
      "outputs": [
        {
          "name": "",
          "type": "uint256"
        }
      ],
      "payable": false,
      "stateMutability": "view",
      "type": "function"
    },
    {
      "constant": true,
      "inputs": [
        {
          "name": "",
          "type": "address"
        }
      ],
      "name": "contributions",
      "outputs": [
        {
          "name": "",
          "type": "uint256"
        }
      ],
      "payable": false,
      "stateMutability": "view",
      "type": "function"
    },
    {
      "constant": true,
      "inputs": [],
      "name": "isOpen",
      "outputs": [
        {
          "name": "",
          "type": "bool"
        }
      ],
      "payable": false,
      "stateMutability": "view",
      "type": "function"
    },
    {
      "constant": true,
      "inputs": [],
      "name": "closingTime",
      "outputs": [
        {
          "name": "",
          "type": "uint256"
        }
      ],
      "payable": false,
      "stateMutability": "view",
      "type": "function"
    },
    {
      "constant": true,
      "inputs": [],
      "name": "capReached",
      "outputs": [
        {
          "name": "",
          "type": "bool"
        }
      ],
      "payable": false,
      "stateMutability": "view",
      "type": "function"
    },
    {
      "constant": true,
      "inputs": [],
      "name": "wallet",
      "outputs": [
        {
          "name": "",
          "type": "address"
        }
      ],
      "payable": false,
      "stateMutability": "view",
      "type": "function"
    },
    {
      "constant": true,
      "inputs": [],
      "name": "investorMinCap",
      "outputs": [
        {
          "name": "",
          "type": "uint256"
        }
      ],
      "payable": false,
      "stateMutability": "view",
      "type": "function"
    },
    {
      "constant": true,
      "inputs": [],
      "name": "openingTime",
      "outputs": [
        {
          "name": "",
          "type": "uint256"
        }
      ],
      "payable": false,
      "stateMutability": "view",
      "type": "function"
    },
    {
      "constant": false,
      "inputs": [
        {
          "name": "beneficiary",
          "type": "address"
        }
      ],
      "name": "buyTokens",
      "outputs": [],
      "payable": true,
      "stateMutability": "payable",
      "type": "function"
    },
    {
      "constant": true,
      "inputs": [],
      "name": "investorHardCap",
      "outputs": [
        {
          "name": "",
          "type": "uint256"
        }
      ],
      "payable": false,
      "stateMutability": "view",
      "type": "function"
    },
    {
      "constant": true,
      "inputs": [],
      "name": "token",
      "outputs": [
        {
          "name": "",
          "type": "address"
        }
      ],
      "payable": false,
      "stateMutability": "view",
      "type": "function"
    },
    {
      "inputs": [
        {
          "name": "_rate",
          "type": "uint256"
        },
        {
          "name": "_wallet",
          "type": "address"
        },
        {
          "name": "_token",
          "type": "address"
        },
        {
          "name": "_cap",
          "type": "uint256"
        },
        {
          "name": "_openingTime",
          "type": "uint256"
        },
        {
          "name": "_closingTime",
          "type": "uint256"
        }
      ],
      "payable": false,
      "stateMutability": "nonpayable",
      "type": "constructor"
    },
    {
      "payable": true,
      "stateMutability": "payable",
      "type": "fallback"
    },
    {
      "anonymous": false,
      "inputs": [
        {
          "indexed": false,
          "name": "prevClosingTime",
          "type": "uint256"
        },
        {
          "indexed": false,
          "name": "newClosingTime",
          "type": "uint256"
        }
      ],
      "name": "TimedCrowdsaleExtended",
      "type": "event"
    },
    {
      "anonymous": false,
      "inputs": [
        {
          "indexed": true,
          "name": "purchaser",
          "type": "address"
        },
        {
          "indexed": true,
          "name": "beneficiary",
          "type": "address"
        },
        {
          "indexed": false,
          "name": "value",
          "type": "uint256"
        },
        {
          "indexed": false,
          "name": "amount",
          "type": "uint256"
        }
      ],
      "name": "TokensPurchased",
      "type": "event"
    },
    {
      "constant": true,
      "inputs": [
        {
          "name": "_beneficiary",
          "type": "address"
        }
      ],
      "name": "getUserContribution",
      "outputs": [
        {
          "name": "",
          "type": "uint256"
        }
      ],
      "payable": false,
      "stateMutability": "view",
      "type": "function"
    }
  ],
  "bytecode": "0x608060405266470de4df8200006008556802b5e3af16b188000060095534801561002857600080fd5b5060405160c0806112db833981018060405260c081101561004857600080fd5b8101908080519060200190929190805190602001909291908051906020019092919080519060200190929190805190602001909291908051906020019092919050505081818488888860016000819055506000831161010f576040517f08c379a00000000000000000000000000000000000000000000000000000000081526004018080602001828103825260148152602001807f43726f776473616c653a2072617465206973203000000000000000000000000081525060200191505060405180910390fd5b600073ffffffffffffffffffffffffffffffffffffffff168273ffffffffffffffffffffffffffffffffffffffff161415610195576040517f08c379a00000000000000000000000000000000000000000000000000000000081526004018080602001828103825260258152602001806112b66025913960400191505060405180910390fd5b600073ffffffffffffffffffffffffffffffffffffffff168173ffffffffffffffffffffffffffffffffffffffff16141561021b576040517f08c379a00000000000000000000000000000000000000000000000000000000081526004018080602001828103825260248152602001806112926024913960400191505060405180910390fd5b8260038190555081600260006101000a81548173ffffffffffffffffffffffffffffffffffffffff021916908373ffffffffffffffffffffffffffffffffffffffff16021790555080600160006101000a81548173ffffffffffffffffffffffffffffffffffffffff021916908373ffffffffffffffffffffffffffffffffffffffff1602179055505050506000811161031d576040517f08c379a00000000000000000000000000000000000000000000000000000000081526004018080602001828103825260198152602001807f43617070656443726f776473616c653a2063617020697320300000000000000081525060200191505060405180910390fd5b80600581905550504282101561037e576040517f08c379a00000000000000000000000000000000000000000000000000000000081526004018080602001828103825260338152602001806112286033913960400191505060405180910390fd5b8181116103d6576040517f08c379a000000000000000000000000000000000000000000000000000000000815260040180806020018281038252603781526020018061125b6037913960400191505060405180910390fd5b81600681905550806007819055505050505050505050610e2d806103fb6000396000f3fe6080604052600436106100e85760003560e01c80634f9359451161008a578063bb8b2b4711610059578063bb8b2b471461033e578063ec8ac4d8146103a3578063ed5db874146103e7578063fc0c546a14610412576100e8565b80634f93594514610262578063521eb27314610291578063b25d7f54146102e8578063b7a8807c14610313576100e8565b80634042b66f116100c65780634042b66f1461017857806342e94c90146101a357806347535d7b146102085780634b6753bc14610237576100e8565b80631515bc2b146100f35780632c4e722e14610122578063355274ea1461014d575b6100f133610469565b005b3480156100ff57600080fd5b506101086105c6565b604051808215151515815260200191505060405180910390f35b34801561012e57600080fd5b506101376105d2565b6040518082815260200191505060405180910390f35b34801561015957600080fd5b506101626105dc565b6040518082815260200191505060405180910390f35b34801561018457600080fd5b5061018d6105e6565b6040518082815260200191505060405180910390f35b3480156101af57600080fd5b506101f2600480360360208110156101c657600080fd5b81019080803573ffffffffffffffffffffffffffffffffffffffff1690602001909291905050506105f0565b6040518082815260200191505060405180910390f35b34801561021457600080fd5b5061021d610608565b604051808215151515815260200191505060405180910390f35b34801561024357600080fd5b5061024c610623565b6040518082815260200191505060405180910390f35b34801561026e57600080fd5b5061027761062d565b604051808215151515815260200191505060405180910390f35b34801561029d57600080fd5b506102a6610641565b604051808273ffffffffffffffffffffffffffffffffffffffff1673ffffffffffffffffffffffffffffffffffffffff16815260200191505060405180910390f35b3480156102f457600080fd5b506102fd61066b565b6040518082815260200191505060405180910390f35b34801561031f57600080fd5b50610328610671565b6040518082815260200191505060405180910390f35b34801561034a57600080fd5b5061038d6004803603602081101561036157600080fd5b81019080803573ffffffffffffffffffffffffffffffffffffffff16906020019092919050505061067b565b6040518082815260200191505060405180910390f35b6103e5600480360360208110156103b957600080fd5b81019080803573ffffffffffffffffffffffffffffffffffffffff169060200190929190505050610469565b005b3480156103f357600080fd5b506103fc6106c4565b6040518082815260200191505060405180910390f35b34801561041e57600080fd5b506104276106ca565b604051808273ffffffffffffffffffffffffffffffffffffffff1673ffffffffffffffffffffffffffffffffffffffff16815260200191505060405180910390f35b60016000808282540192505081905550600080549050600034905061048e83826106f4565b6000610499826107c8565b90506104b0826004546107e690919063ffffffff16565b6004819055506104c0848261086e565b8373ffffffffffffffffffffffffffffffffffffffff163373ffffffffffffffffffffffffffffffffffffffff167f6faf93231a456e552dbc9961f58d9713ee4f2e69d15f1975b050ef0911053a7b8484604051808381526020018281526020019250505060405180910390a3610537848361087c565b61053f610915565b6105498483610980565b505060005481146105c2576040517f08c379a000000000000000000000000000000000000000000000000000000000815260040180806020018281038252601f8152602001807f5265656e7472616e637947756172643a207265656e7472616e742063616c6c0081525060200191505060405180910390fd5b5050565b60006007544211905090565b6000600354905090565b6000600554905090565b6000600454905090565b600a6020528060005260406000206000915090505481565b6000600654421015801561061e57506007544211155b905090565b6000600754905090565b600060055461063a6105e6565b1015905090565b6000600260009054906101000a900473ffffffffffffffffffffffffffffffffffffffff16905090565b60085481565b6000600654905090565b6000600a60008373ffffffffffffffffffffffffffffffffffffffff1673ffffffffffffffffffffffffffffffffffffffff168152602001908152602001600020549050919050565b60095481565b6000600160009054906101000a900473ffffffffffffffffffffffffffffffffffffffff16905090565b6106fe8282610984565b6000600a60008473ffffffffffffffffffffffffffffffffffffffff1673ffffffffffffffffffffffffffffffffffffffff168152602001908152602001600020549050600061075783836107e690919063ffffffff16565b9050600854811015801561076d57506009548111155b6107c2576040517f08c379a0000000000000000000000000000000000000000000000000000000008152600401808060200182810382526045815260200180610d726045913960600191505060405180910390fd5b50505050565b60006107df60035483610a0c90919063ffffffff16565b9050919050565b600080828401905083811015610864576040517f08c379a000000000000000000000000000000000000000000000000000000000815260040180806020018281038252601b8152602001807f536166654d6174683a206164646974696f6e206f766572666c6f77000000000081525060200191505060405180910390fd5b8091505092915050565b6108788282610a92565b5050565b6108ce81600a60008573ffffffffffffffffffffffffffffffffffffffff1673ffffffffffffffffffffffffffffffffffffffff168152602001908152602001600020546107e690919063ffffffff16565b600a60008473ffffffffffffffffffffffffffffffffffffffff1673ffffffffffffffffffffffffffffffffffffffff168152602001908152602001600020819055505050565b600260009054906101000a900473ffffffffffffffffffffffffffffffffffffffff1673ffffffffffffffffffffffffffffffffffffffff166108fc349081150290604051600060405180830381858888f1935050505015801561097d573d6000803e3d6000fd5b50565b5050565b61098c610608565b6109fe576040517f08c379a00000000000000000000000000000000000000000000000000000000081526004018080602001828103825260188152602001807f54696d656443726f776473616c653a206e6f74206f70656e000000000000000081525060200191505060405180910390fd5b610a088282610bd1565b5050565b600080831415610a1f5760009050610a8c565b6000828402905082848281610a3057fe5b0414610a87576040517f08c379a0000000000000000000000000000000000000000000000000000000008152600401808060200182810382526021815260200180610db76021913960400191505060405180910390fd5b809150505b92915050565b610a9a6106ca565b73ffffffffffffffffffffffffffffffffffffffff166340c10f1983836040518363ffffffff1660e01b8152600401808373ffffffffffffffffffffffffffffffffffffffff1673ffffffffffffffffffffffffffffffffffffffff16815260200182815260200192505050602060405180830381600087803b158015610b2057600080fd5b505af1158015610b34573d6000803e3d6000fd5b505050506040513d6020811015610b4a57600080fd5b8101908080519060200190929190505050610bcd576040517f08c379a000000000000000000000000000000000000000000000000000000000815260040180806020018281038252601f8152602001807f4d696e74656443726f776473616c653a206d696e74696e67206661696c65640081525060200191505060405180910390fd5b5050565b610bdb8282610c70565b600554610bf882610bea6105e6565b6107e690919063ffffffff16565b1115610c6c576040517f08c379a000000000000000000000000000000000000000000000000000000000815260040180806020018281038252601d8152602001807f43617070656443726f776473616c653a2063617020657863656564656400000081525060200191505060405180910390fd5b5050565b600073ffffffffffffffffffffffffffffffffffffffff168273ffffffffffffffffffffffffffffffffffffffff161415610cf6576040517f08c379a000000000000000000000000000000000000000000000000000000000815260040180806020018281038252602a815260200180610dd8602a913960400191505060405180910390fd5b6000811415610d6d576040517f08c379a00000000000000000000000000000000000000000000000000000000081526004018080602001828103825260198152602001807f43726f776473616c653a20776569416d6f756e7420697320300000000000000081525060200191505060405180910390fd5b505056fe526571756972652077656920616d6f756e7420746f2062652067726561746572207468616e206d696e2063617020616e64206c657373207468616e20686172642063617021536166654d6174683a206d756c7469706c69636174696f6e206f766572666c6f7743726f776473616c653a2062656e656669636961727920697320746865207a65726f2061646472657373a165627a7a7230582087fc03736d3a4b0c3c9e8d2a872a7dd8f9800396e35d577a01cf53cff67731b8002954696d656443726f776473616c653a206f70656e696e672074696d65206973206265666f72652063757272656e742074696d6554696d656443726f776473616c653a206f70656e696e672074696d65206973206e6f74206265666f726520636c6f73696e672074696d6543726f776473616c653a20746f6b656e20697320746865207a65726f206164647265737343726f776473616c653a2077616c6c657420697320746865207a65726f2061646472657373",
  "source": "pragma solidity ^0.5.0;\r\n\r\nimport 'openzeppelin-solidity/contracts/crowdsale/Crowdsale.sol';\r\nimport 'openzeppelin-solidity/contracts/crowdsale/emission/MintedCrowdsale.sol';\r\nimport 'openzeppelin-solidity/contracts/crowdsale/validation/CappedCrowdsale.sol';\r\nimport 'openzeppelin-solidity/contracts/crowdsale/validation/TimedCrowdsale.sol';\r\n\r\n\r\ncontract ViewTokenCrowdsale is Crowdsale, MintedCrowdsale, CappedCrowdsale, TimedCrowdsale {\r\n  // Minimum investor total contribution - 0.002 Ether\r\n  uint256 public investorMinCap = 20000000000000000;\r\n\r\n  // Maximum investor total contribution - 50 Ether\r\n  uint256 public investorHardCap = 50000000000000000000;\r\n\r\n  // Kepp track of contribution for each investor\r\n  mapping(address => uint256) public contributions;\r\n\r\n  //  _cap: takes maximum amount of wei accepted\r\n  // _openingTime, _closingTime are unix time\r\n  constructor(\r\n    uint256 _rate,\r\n    address payable _wallet,\r\n    IERC20 _token,\r\n    uint256 _cap,\r\n    uint256 _openingTime,\r\n    uint256 _closingTime)\r\n  Crowdsale(_rate, _wallet, _token)\r\n  CappedCrowdsale(_cap)\r\n  TimedCrowdsale(_openingTime, _closingTime)\r\n  public {\r\n\r\n  }\r\n\r\n  /**\r\n  * @dev Returns the amount contributed so far by a sepecific user.\r\n  * @param _beneficiary Address of contributor\r\n  * @return User contribution so far\r\n  */\r\n  function getUserContribution(address _beneficiary) public view returns(uint256) {\r\n    return contributions[_beneficiary];\r\n  }\r\n\r\n  /**\r\n  * @dev Extend parent behavior requiring purchase to respect investor min/max funding cap.\r\n  * @param _beneficiary Token purchaser\r\n  * @param _weiAmount Amount of wei contributed\r\n  */\r\n  function _preValidatePurchase(address _beneficiary, uint256 _weiAmount) internal view {\r\n    super._preValidatePurchase(_beneficiary, _weiAmount);\r\n    uint256 _existingContribution = contributions[_beneficiary];\r\n    uint256 _newContribution = _existingContribution.add(_weiAmount);\r\n    require (_newContribution >= investorMinCap &&\r\n             _newContribution <= investorHardCap,\r\n             'Require wei amount to be greater than min cap and less than hard cap!');\r\n  }\r\n\r\n  /**\r\n    * @dev Override for extensions that require an internal state to check for validity (current user contributions,\r\n    * etc.)\r\n    * @param _beneficiary Address receiving the tokens\r\n    * @param _weiAmount Value in wei involved in the purchase\r\n    */\r\n  function _updatePurchasingState(address _beneficiary, uint256 _weiAmount) internal {\r\n      contributions[_beneficiary] = contributions[_beneficiary].add(_weiAmount);\r\n  }\r\n}",
  "sourcePath": "F:/projects/blockchain/view_ico/contracts/ViewTokenCrowdsale.sol",
  "compiler": {
    "name": "solc",
    "version": "0.5.8+commit.23d335f2.Emscripten.clang"
  },
  "schemaVersion": "3.0.11",
  "updatedAt": "2019-06-20T00:44:34.313Z",
  "devdoc": {
    "methods": {
      "buyTokens(address)": {
        "details": "low level token purchase ***DO NOT OVERRIDE*** This function has a non-reentrancy guard, so it shouldn't be called by another `nonReentrant` function.",
        "params": {
          "beneficiary": "Recipient of the token purchase"
        }
      },
      "cap()": {
        "return": "the cap of the crowdsale."
      },
      "capReached()": {
        "details": "Checks whether the cap has been reached.",
        "return": "Whether the cap was reached"
      },
      "closingTime()": {
        "return": "the crowdsale closing time."
      },
      "getUserContribution(address)": {
        "details": "Returns the amount contributed so far by a sepecific user.\r",
        "params": {
          "_beneficiary": "Address of contributor\r"
        },
        "return": "User contribution so far\r"
      },
      "hasClosed()": {
        "details": "Checks whether the period in which the crowdsale is open has already elapsed.",
        "return": "Whether crowdsale period has elapsed"
      },
      "isOpen()": {
        "return": "true if the crowdsale is open, false otherwise."
      },
      "openingTime()": {
        "return": "the crowdsale opening time."
      },
      "rate()": {
        "return": "the number of token units a buyer gets per wei."
      },
      "token()": {
        "return": "the token being sold."
      },
      "wallet()": {
        "return": "the address where funds are collected."
      },
      "weiRaised()": {
        "return": "the amount of wei raised."
      }
    }
  },
  "userdoc": {
    "methods": {}
  }
}